:020000040800F2
:1000000060050020A1010008571700089D16000890
:1000100055170008B5020008B91D000800000000CF
:1000200000000000000000000000000005190008AA
:10003000B70200080000000059170008071900085F
:10004000BB010008BB010008BB010008BB010008A0
:10005000BB010008BB010008BB010008BB01000890
:10006000BB010008BB010008BB010008BB01000880
:10007000BB010008BB010008BB010008BB01000870
:10008000BB010008BB010008BB010008BB01000860
:10009000BB010008BB010008BB010008BB01000850
:1000A000BB010008BB010008BB010008BB01000840
:1000B000BB0100080000000000000000BB010008B8
:1000C000BB010008BB010008BB010008BB01000820
:1000D000BB010008BB010008BB010008BB01000810
:1000E000BB010008BB010008000000000000000088
:1000F0000000000000000000000000000000000000
:1001000000000000BB01000800000000BB01000867
:100110000000000000000000BB010008BB01000857
:10012000BB010008BB010008BB010008BB010008BF
:10013000BB010008000000000000000000000000FB
:10014000BB010008BB010008BB0100080000000063
:10015000BB010008BB010008BB010008BB0100088F
:10016000BB010008BB010008BB0100080000000043
:10017000BB010008BB0100080000000000000000F7
:10018000BB010008BB010008BB010008DFF80CD070
:1001900000F07EF800480047F91D000860050020C7
:1001A0000648804706480047FEE7FEE7FEE7FEE711
:1001B000FEE7FEE7FEE7FEE7FEE7FEE79919000827
:1001C0008D0100082DE9F05F0546002092469B4610
:1001D00088460646814640241BE02846414647465D
:1001E000224600F044F853465A46C01A914110D3B3
:1001F00011461846224600F02BF82D1A67EB01082D
:100200004F4622460120002100F022F817EB00099A
:100210004E41201EA4F10104DFDC484631462A4647
:10022000434600F000B830BCBDE8C09FD2B201E048
:1002300000F8012B491EFBD270470022F6E710B5EB
:1002400013460A4604461946FFF7F0FF204610BD44
:10025000202A04DB203A00FA02F100207047914086
:10026000C2F1200320FA03F3194390407047202A7B
:1002700004DB203A21FA02F00021704721FA02F350
:10028000D040C2F120029140084319467047000057
:10029000064C074D06E0E06840F0010394E80700D3
:1002A00098471034AC42F6D3FFF774FFC01E000825
:1002B000E01E0008FEE77047F8B50025009590F8AD
:1002C00054202E46012A19D0012780F85470036863
:1002D0009A6852077DD44A681F24052A10D2D3F8A1
:1002E00030C002EB4202520094402CEA040C0C682D
:1002F00094404CEA040CC3F830C034E00220F8BD4E
:100300000A2A0FD2D3F834C0521F02EB4202520025
:1003100094402CEA040C0C6894404CEA040CC3F89A
:1003200034C020E00F2A0FD2D3F838C00A3A02EBCB
:100330004202520094402CEA040C0C6894404CEAAF
:10034000040CC3F838C00EE0D3F83CC00F3A02EBFF
:100350004202520094402CEA040C0C6894404CEA8F
:10036000040CC3F83CC00268936813F00C0F4FF004
:10037000070374D1D1F800E0BEF10A0F10D39469DD
:10038000AEF10A0E0EEB4E0C03FA0CFE24EA0E043C
:10039000D1F808E00EFA0CFE44EA0E0494610FE076
:1003A000D2F814C00EEB4E0403FA04FE2CEA0E0C35
:1003B000D1F808E00EFA04FE4CEA0E0CC2F814C0A4
:1003C00002684C69D2F80CC0CCF3C10C4FEA4C0C5B
:1003D00000E0CCE004FA0CF4D1F810E0DFF8F0C152
:1003E000BEF1010F42D0BEF1020F4DD0BEF1030F9E
:1003F00058D0BEF1040F63D0146E91F800C004F021
:10040000F844B4EB8C6F03D1146E24F000441466EE
:100410000268546E91F800C004F0F844B4EB8C6F9D
:1004200003D1546E24F0004454660268946E91F82F
:1004300000C004F0F844B4EB8C6F03D1946E24F048
:10044000004494660268D46E91F800C004F0F84449
:10045000B4EB8C6F03D1D46E24F00044D4660268F0
:10046000946804F00304012C3AD136E0D2F860E03D
:100470000EEA0C0E91F800C044EA8C644EEA040EB9
:100480004EF000441466EAE7D2F864E00EEA0C0E7F
:1004900091F800C044EA8C644EEA040E4EF0004429
:1004A0005466DCE7D2F868E00EEA0C0E91F800C062
:1004B00044EA8C644EEA040E4EF000449466CEE7A3
:1004C000D2F86CE00EEA0C0E91F800C044EA8C649D
:1004D0004EEA040E4EF00044C0E71468E4074BD126
:1004E000CC68B4F1804F06D052F8B03F0C78A740EA
:1004F000BB43136020E052F8B04F91F800C007FAF8
:100500000CF73C4314600A680468092A0AD3A769F7
:10051000093A02EB420293409F438B6893401F438A
:10052000A76109E06769521C02EB420293409F43B6
:100530008B6893401F4367610968264A112903D0DD
:10054000122904D031B117E093681B0204E09368CC
:10055000DB0101E093685B02002B0DDB03689C6804
:1005600004F00304012C0BD11C68E40708D0816D52
:1005700041F020018165012580F854602846F8BDCE
:10058000154C11290AD012291CD00029F4D1A342FC
:10059000F2D1916841F480019160EDE7A342EBD183
:1005A000916841F4000191600C490D4A0968B1FB62
:1005B000F2F1C1EB0111C90000E0491E00910029D0
:1005C000FBD1D9E7A342D7D1916841F08071E3E72D
:1005D00000F0FF030003045000000450040000205A
:1005E00080841E00F8B54FF0000504002E460095EB
:1005F00002D0A06D10B107E00120F8BD204600F048
:10060000B5F8E66584F8546020688168890003D5F0
:10061000816821F00051816020688168C90010D490
:10062000816841F0805181604B484C490068B0FBC3
:10063000F1F000EB8000400000E0401E0090002838
:10064000FBD120688168C90008D4A16D41F0100178
:10065000A165E16D41F00101E1650125A16DC906CA
:1006600072D4816849076FD4A16D21F4807141F083
:100670000201A1653A49826802F00302012A02D10F
:100680000068C00705D18868626820F47C101043B8
:100690008860E168A06BE2690843A16841EA4231E1
:1006A0000843616A40EA0140012904D1218D2D4AA5
:1006B00002EB41410843E26A012A03D0216B09B1F0
:1006C000114308432168CA68274B1A400243CA6095
:1006D0002068816811F00C0F12D1A169626B890347
:1006E00041EA4201C26844F202039A430A43C260EB
:1006F000E06B01280CD02068016921F00101016143
:10070000206901282068016B21F00F0110D012E050
:10071000D4E910100143D4E91202104301432068C8
:10072000026940F2FD739A43114341F00101E6E78B
:10073000226A521E11430163A06D20F0020040F0B6
:100740000100A06505E0FFE7A06D40F01000A06586
:1007500001252846F8BD00000400002080841E000A
:10076000000304500000FEFF07C0F0FF10B586B084
:10077000044614216846FFF760FD1149206888424D
:100780001BD11048C16C41F40051C164C16C01F42B
:1007900000510591C16C41F00101C164C06C694612
:1007A00000F001000590022000900B200190002035
:1007B00002904FF0904000F007F806B010BD000026
:1007C00000000450001002402DE9F84FDFF864B13A
:1007D00000234FF0010C4FF0030A4FF00F090BF10B
:1007E000040EA0E00CFA03F6324072D04C68022CE2
:1007F00001D0122C0ED1DC0800EB8408D8F8204080
:100800005D07EF0E09FA07F5AC430D69BD402543BE
:10081000C8F8205007685D0091F804800AFA05F4D2
:1008200008F00308A74308FA05F848EA0708C0F8E3
:1008300000804F68012F05D0022F03D0112F01D067
:10084000122F11D18768D1F80C80A74308FA05F858
:1008500048EA0708C0F808804768B7430E79C6F32E
:1008600000169E403E434660C668A6438C68AC4076
:100870003443C4604C68E40054D52F4C256E45F0D9
:1008800001052566246E23F0030504F0010400949D
:100890002A4C2E19B4689D072F0F09FA07F5AC43AF
:1008A000B0F1904F04D0264DA84203D1012512E0AB
:1008B000002510E0234DA84201D102250BE0224D76
:1008C000A84201D1032506E0204DA84202D104250B
:1008D00001E027E00725BD402543B560DBF8004077
:1008E0005D464E689443F60300D514432C60DEF851
:1008F000004075464E689443B60300D514432C60FF
:100900000C4D08352C684E689443F60200D514430C
:100910002C60084D0C352C684E689443B60200D507
:1009200014432C605B1C0A6832FA03F47FF45AAF5C
:1009300000F00EB800040140001002400000014029
:100940000004004800080048000C0048001000485F
:1009500018BCBDE8E08F0000014800687047000047
:100960000000002002480168491C01607047000037
:100970000000002010B50024032000F059F80020EA
:1009800000F008F808B1012401E000F01BF820464F
:1009900010BD000070B5054609484FF47A71002477
:1009A0000068B0FBF1F000F085FD08B1012404E01F
:1009B00000222946501E00F01BF8204670BD0000A2
:1009C00004000020094808B5016E41F001010166EC
:1009D000016E01F001010091816D41F0805181654E
:1009E000806D00F08050009008BD000000100240B3
:1009F000F0B40E4B1B680C46C3F30223C3F107058A
:100A0000042D00D90425191D072901D2002300E077
:100A1000DB1E012606FA05F1491E214099409E4041
:100A2000761E16403143F0BC01F0C7B90CED00E072
:100A3000064900F0070208684FF6FF03184040EA35
:100A40000220034A10430860704700000CED00E0EC
:100A50000000FA051649B0F5007F0868C0F3412090
:100A600009D0022805D0086820F4C06040F48060F6
:100A70000860002070470128FBD0086820F4C0609F
:100A800040F4007008600B483222006850430A4A64
:100A9000B0FBF2F0401C00E0401E4A69520501D54F
:100AA0000028F9D148694005E3D5032070470000CC
:100AB000007000400400002040420F00024800681F
:100AC00000F4C06070470000007000402DE9F84F4E
:100AD000044600270088A84D3E46000515D5606CE9
:100AE00060B1B0F5000F04D0B0F5400F2BD0012756
:100AF0000AE0E86840F48030E86024E00021201D2E
:100B000000F02CFE07001ED03E46206880033AD538
:100B1000A86D4FF00008C00009D4A86D40F08050C7
:100B2000A865A86D4FF0010800F080500090DFF834
:100B30004CA2DAF8001041F48071CAF80010FFF7F7
:100B40000BFF814610E0D5F88800616C20F440006E
:100B50000843C5F88800D8E7FFF7FEFEA0EB0900C0
:100B6000022801D9032705E0DAF80000C005F3D513
:100B7000002F7DD04FEA0706B8F1000F03D0A86D13
:100B800020F08050A8652078C00707D0D5F88800ED
:100B9000216A20F003000843C5F888002078800708
:100BA00007D5D5F88800616A20F00C000843C5F825
:100BB00088002078400707D5D5F88800A16A20F082
:100BC00030000843C5F888002078800607D5D5F89E
:100BD0008800E16A20F440600843C5F88800208856
:100BE000800507D5D5F88800E16B20F44020084344
:100BF000C5F888002088400507D5D5F88800216C05
:100C000020F440100843C5F888002078400607D536
:100C1000D5F88800216B20F440500843C5F88800BF
:100C20002078000607D5D5F88800616B20F4404095
:100C30000843C5F888002088C00507D5D5F8880086
:100C4000A16B20F440300843C5F8880020684FF0BD
:100C5000006700034FF0806850D5D5F88800A16C7C
:100C600020F040600843C5F88800A06CB84200E05E
:100C700005E03BD1E86840F48010E8603EE0D5F83C
:100C8000900010F4407014D0A16D814211D0D5F8BD
:100C90009000D5F8901020F4407041F48031C5F8F0
:100CA0009010D5F8901021F48031C5F89010C5F857
:100CB0009000C00711D0FFF74FFE074641F2883978
:100CC00007E000BFFFF748FEC11B494501D90326D5
:100CD00052E7D5F890008007F4D5D5F89000A16DC3
:100CE00020F440700843C5F8900045E7404505D121
:100CF0000121201D00F032FD00B1064620684003AE
:100D000017D5D5F88800E16C20F040600843C5F89D
:100D10008800E06CB84204D1E86840F48010E860D4
:100D200007E0404505D10121201D00F017FD00B16D
:100D300006462088400411D5D5F88800216D20F0A2
:100D400040500843C5F88800206DB0F1805F05D1A0
:100D50000221201D00F002FD00B10646208800049B
:100D600006D555F8880F616D20F080400843286053
:100D7000304600F005B8000000100240007000404E
:100D800018BCBDE8E08F00002DE9F047DFF8608176
:100D900005460E46D8F8000000F00700B0420CD21D
:100DA000D8F8001021F007013143C8F80010D8F836
:100DB000000000F00700B04275D128784D4CC00704
:100DC00057D06868032818D0022819D02168D0B1FC
:100DD0004905002967DAA16821F003010143A160F8
:100DE000FFF7BAFD6968074641F28830032913D03E
:100DF00002291FD0814651B336E021688901E8E716
:100E000021688903E5E78907E3E700BFFFF7A4FD51
:100E1000C11B494501D924E08146A068C0F3810087
:100E20000328F3D125E000BFFFF796FDC11B49451C
:100E300001D916E08146A068C0F381000228F3D1F1
:100E400017E000BFFFF788FDC11B494509D8A0681E
:100E500010F00C0FF6D10CE0FFF77EFDC11B4945E9
:100E600002D90320BDE8F087A068C0F38100012803
:100E7000F2D12878800705D5A068A96820F0F00095
:100E80000843A060D8F80010404601F00701B142C5
:100E90000BD9016821F0070131430160006800F0BF
:100EA0000700B04201D00120DCE72878400705D5D3
:100EB000A068E96820F4E0600843A0602878000793
:100EC00006D5A068296920F4605040EAC100A060FE
:100ED00000F036F8A168084AC1F30311515CC8401C
:100EE000064908600020FFF755FD0020BAE7000022
:100EF0000020024000100240781E0008040000207C
:100F00000448054900688968044AC1F30221515C1C
:100F1000C84070470400002000100240B81E0008BE
:100F20000448054900688968044AC1F3C221515C3C
:100F3000C84070470400002000100240B81E00089E
:100F400030B52D49002318468A682C4C12F00C0F3E
:100F50004FEA640514D08A68C2F38102032A04D1DF
:100F6000CA6802F00302012A0AD08A68C2F3810229
:100F7000012A19D08A68C2F38102022A16D016E02B
:100F80000A68120704D4D1F89420C2F3032202E0C5
:100F90000A68C2F303121A4B53F822308A6812F01F
:100FA0000C0F04D1184602E0204600E028468A686B
:100FB000C2F38102032A1DD1C868CA6800F0030089
:100FC000C2F30212521C022804D0032805D0B3FB3E
:100FD000F2F004E0B4FBF2F001E0B5FBF2F0CA6815
:100FE000C968C2F306225043C1F34161491C49005C
:100FF000B0FBF1F030BD0000001002400024F4000E
:10100000881E00082DE9F84304460078FD4DC0060F
:101010005DD5A86810F00C0F0AD0A06900282868D8
:1010200071D040F001002860FFF796FC064654E0BE
:101030002868800702D5A06900287DD0216A286829
:10104000000703D5286800F0F00004E0D5F894000C
:10105000F02202EA1010814216D9084600F014FC72
:10106000002869D1286840F0080028602868216AB3
:1010700020F0F000084328606868E16920F47F40B0
:1010800040EA0120686015E0286840F00800286008
:101090002868216A20F0F000084328606868E16948
:1010A00020F47F4040EA01206860206A00F0ECFBF9
:1010B0000028D6D1FFF744FFA968D34AC1F3031132
:1010C000515CC840D14908600020FFF763FC29E06B
:1010D000FFF742FC801B02287ED828688007F7D5DE
:1010E000286840F0080028602868216A20F0F00095
:1010F000084328606868E16920F47F4040EA0120E5
:1011000068600FE0FFE720F001002860FFF724FC93
:10111000064604E0FFF720FC801B0228DCD8286884
:101120008007F7D42078C0074AD0A868C0F38100B0
:1011300002281FD0A86800E098E0C0F381000328CF
:1011400003D1E868C043800714D06068B0F5803FE1
:1011500017D0B0F5A02F286817D020F48030286071
:10116000286820F4802028606068E0B1FFF7F4FB75
:10117000064614E02868800322D56068002875D0F0
:101180001EE0286840F48030EDE740F480202860BD
:10119000F7E700BFFFF7E0FB801B64289CD82868B6
:1011A0008003F7D50CE0FFF7D7FB064605E000BF4C
:1011B000FFF7D2FB801B64288ED828688003F7D401
:1011C0002078800742D5A868C0F38100012816D096
:1011D000A868C0F3810000E0CEE0032804D1E868ED
:1011E00000F0030002280AD0E068002828681DD01B
:1011F00040F480702860FFF7AFFB06460BE02868DC
:1012000040050BD5E0680028B9D007E0FFF7A4FB44
:10121000801B0228C2D828684005F7D56868217C61
:1012200020F0F85040EA016068600FE020F4807020
:101230002860FFF791FB064605E000BFFFF78CFB37
:10124000801B0228AAD828684005F7D42078000718
:1012500029D560690028D5F8940013D040F001002A
:10126000C5F89400FFF778FB064606E01DE100BFD5
:10127000FFF772FB801B02287ED8D5F89400800708
:10128000F6D510E020F00100C5F89400FFF764FBEC
:10129000064604E0FFF760FB801B02286CD8D5F8F7
:1012A00094008007F6D42078400761D5A86D002609
:1012B000C00008D4A86D40F08050A865A86D012634
:1012C00000F08050009052480168C90511D40168AF
:1012D000804641F480710160FFF73EFB074604E061
:1012E000FFF73AFBC01B022846D8D8F80000C0051B
:1012F000F6D5A068012815D00528D5F8900016D09D
:1013000020F00100C5F89000D5F8900020F004000E
:10131000C5F89000A06841F28838B8B1FFF71CFB0F
:1013200007460EE0D5F8900040F00100F0E740F0ED
:101330000400C5F89000F5E7FFF70EFBC11B41451F
:101340001AD8D5F890008007F6D50CE0FFF704FB1B
:10135000074604E0FFF700FBC11B41450CD8D5F858
:1013600090008007F6D41EB1A86D20F08050A865CB
:101370002078800629D500E089E0606A0028D5F849
:10138000980011D040F00100C5F89800FFF7E4FA8A
:10139000064604E0FFF7E0FA801B02287DD8D5F866
:1013A00098008007F6D510E020F00100C5F89800FD
:1013B000FFF7D2FA064604E0FFF7CEFA801B0228B8
:1013C0006BD8D5F898008007F6D4A06AC8B1A96890
:1013D000C1F38101032968D00228286820F08070B9
:1013E000286019D02868000103D4E86820F00300C1
:1013F000E860E86807490840E860FFF7ADFA04468E
:101400004EE050E000100240781E0008040000206A
:1014100000700040FFFFEEFEFFF79EFA064604E074
:10142000FFF79AFA801B022837D828688001F7D482
:10143000206B54F82C1F000110380843218A1C4AE5
:10144000490802EB4151A26841EA02210843217D8B
:101450004FF07E42490802EB41610843217B40EA9C
:10146000C160E860286840F080702860E86840F05B
:101470008070E860FFF770FA044604E0FFF76CFA4A
:10148000001B022809D828688001F7D50BE004E08A
:10149000FFF762FA001B022802D90320BDE8F88397
:1014A00028688001F4D40020F8E70120F6E7000066
:1014B0000000E0FF10B5401EB0F1807F01D3012095
:1014C00010BD4FF0E02460610F21601700F075FC43
:1014D0000020A06107202061002010BD10B504008D
:1014E00003D094F8710010B107E0012010BD002076
:1014F00084F87000204600F027F8242084F871005A
:101500002068016821F001010160204600F0F8FA2E
:101510000128EBD0606A10B1204600F05FFA206825
:10152000416821F4904141602068816821F02A01DE
:1015300081602068016841F0010101602046BDE83A
:10154000104000F0AFBA000070B586B00446142118
:101550006846FEF772FE214E2568002120480222CF
:1015600003230724B54219D1056E45F4804505666D
:10157000056E05F480450595C56C45F00105C5640B
:10158000C06C02AD00F00100059085E81A00580219
:10159000CDE9000269464FF090401AE0114EB54285
:1015A00019D1856D45F480258565856D05F4802507
:1015B0000595C56C45F00405C564C06C02AD00F02E
:1015C0000400059085E81A003020CDE90002694644
:1015D0000548FFF7F9F806B070BD0000003801407B
:1015E0000010024000480040000800482DE9F84380
:1015F000044690F871001F4616460D4620284BD130
:10160000C5B1BEB194F87000012845D0012084F81E
:1016100070004FF00008C4F87480212084F8710035
:10162000FFF79AF9A4F850608146A4F852604FF48D
:10163000805615E00120BDE8F8838021204600F0A7
:1016400089FBD8B9A068B04201D12069C0B115F8B2
:10165000010B21680885B4F85200401EA4F852001E
:10166000B4F852004B464FF0000200970028E4D136
:101670004FF04001204600F06DFB30B10320DAE767
:1016800035F8020BC0F30800E3E7202084F871006E
:1016900084F870800020CEE70220CCE7FEE700004F
:1016A00030B587B018216846FEF7C7FD12481149CA
:1016B0000024C0E9001484600421C460C0E904412E
:1016C00001258461C0E90745C0E90945C0E90B541B
:1016D00044638463C463FEF785FF06200090CDE970
:1016E000015403940494694603480594FEF7E4FD0D
:1016F00007B030BD00000450080000200948084928
:1017000001604FF4E1314160002181600C22C16031
:10171000C0E904128161C16101624162FFF7DEBE6E
:1017200000380140700000200948084901604FF46A
:10173000E1314160002181600C22C160C0E90412E6
:101740008161C16101624162FFF7C8BE004800408B
:10175000E8000020FEE77047704700002DE9F041E7
:10176000444C05468846E0680026810728680DD06D
:10177000E16801F00301814216D1A8B1E06869680F
:10178000C0F30210401C88420ED120E0012804D092
:10179000022805D0032807D108E02168890701E065
:1017A00021684905002907DB01265FE021688903DC
:1017B00002D421684903F5E7E1686A686FF00F0316
:1017C00021F0730103EB021211430143E160206831
:1017D00020F080602060FFF7BFF8074605E000BFFB
:1017E000FFF7BAF8C01B022837D820680001F7D4E9
:1017F000B8F1000F18D0B8F1010F1DD0287D4FF0BF
:101800007E41400801EB4060A96840EA012021695F
:10181000194A114008432061206840F08060206030
:10182000FFF79AF807461AE0A868297B000240EA09
:10183000C1602169114AECE7288A1149400801EB8F
:101840004050A96840EA012021690E4AE1E700BF43
:10185000FFF782F8C01B022801D9032606E02068A2
:101860000001F5D52069A969084320613046BDE82B
:10187000F081000000100240FF80FFF9FF80FF07A9
:101880000000E0FFFF809FFFF8B51C4D06460024D6
:10189000A86DC00002D5FFF711F90DE0A86D40F06A
:1018A0008050A865A86D00F080500090FFF706F901
:1018B000A96D21F08051A965B0F5007F04D0802E7C
:1018C00007D94FF003040AE0802E08D9A02E01D8D2
:1018D00004E001D1022402E0702E00D10124084866
:1018E000016821F0070121430160006800F0070052
:1018F000A04201D00120F8BD0020F8BD0010024038
:10190000002002407047FFF72DB82DE9F041AEB03E
:10191000442117A8FEF791FC142128A8FEF78DFC9E
:101920005C216846FEF789FC01263004CDE917608A
:1019300002240327CDE921474FF00708CDE925848C
:1019400014202794CDE9236017A8FFF75BFB0F2035
:1019500028900025CDE929752B95042128A82C95E0
:10196000FFF712FA44F205000A950090E006149081
:1019700008951020CDE9026001970005CDE90640E9
:10198000CDE904846846FFF7A1F82002FFF762F86A
:101990002EB0BDE8F08100000D48016841F47001EF
:1019A00001600C48016841F0010101600021816083
:1019B0000268094B1A4002608214C260026822F475
:1019C0008022026081610249C0038039086070474B
:1019D00088ED00E000100240FFFFF6EA90F82410C6
:1019E000C90706D001684A68836A22F400321A43A4
:1019F0004A6090F82410890706D501684A68C36ACE
:101A000022F480321A434A6090F82410490706D520
:101A100001684A68036B22F480221A434A6090F8F6
:101A20002410090706D501684A68436B22F4004276
:101A30001A434A6090F82410C90606D501688A68DE
:101A4000836B22F480521A438A6090F8241089062E
:101A500006D501688A68C36B22F400521A438A6073
:101A600090F82410490611D501684A68036C22F4E5
:101A700080121A434A60016CB1F5801F06D10168DB
:101A80004A68436C22F4C0021A434A6090F824105A
:101A9000090606D501684A68806C22F400220243D8
:101AA0004A607047F8B5002604464667FEF754FFC3
:101AB0000546206800686FF07E47000708D52B4672
:101AC00000224FF400112046009700F043F960B95E
:101AD0002068006840070AD52B4600224FF4800199
:101AE0002046009700F036F908B10320F8BD202009
:101AF00084F8710084F8720084F870600020F8BDEA
:101B00002DE9F0410446016880682369E6691843BD
:101B100063691025002733431843844A0B68844EB9
:101B2000334003430B6020684168E36821F440516F
:101B3000194341602168A069914201D0236A18438A
:101B40008B6823F4306303438B607A4B21687A48B7
:101B500099420DD1D0F8880010F0030006D001287A
:101B600039D0022835D0032838D136E0012535E0B8
:101B7000724B99420BD1D0F8880010F00C0026D09F
:101B8000042828D0082824D00C2827D125E06C4B25
:101B900099420BD1D0F8880010F0300017D01028EF
:101BA00019D0202815D0302818D116E0914215D12F
:101BB000D0F8880010F4406009D0B0F5806F0AD0EA
:101BC000B0F5006F05D0B0F5406F07D105E00025F6
:101BD00004E0022502E0042500E00825594B002618
:101BE0004FF4004091423DD135B1022D07D0042D74
:101BF00007D0082D10D107E0FFF782F903E018465F
:101C000002E0FFF79DF9A8B3626802EB420181424E
:101C100002D8B0EB023F01D9012774E0DFF8288138
:101C20005DB1022D0CD0042D13D0082DF4D1500835
:101C30002905401846F1000105E0FFF761F90AE0C7
:101C400050084249F5E70023FEF7BCFAA0F54071C1
:101C500055E0FFF775F96268010E03025008181885
:101C60007141F0E7E1694FF6EF7881422ED1092DFD
:101C7000D2D200E047E0DFE805F006091F052205A3
:101C800005052500C8E7FFF73BF901E0FFF748F934
:101C90004100606801EB5001B1FBF0F080B2A0F1AF
:101CA00010014145B8D84FF6F0710140C0F3420031
:101CB00001432068C16026E025496068EAE7FFF734
:101CC0003FF9E5E74FF480316068E3E7092DA3D2DF
:101CD000DFE805F006091E052205050525009BE73E
:101CE000FFF70EF901E0FFF71BF90146606801EB11
:101CF000500100BFB1FBF0F080B2A0F110014145EE
:101D00008AD82168C860266638466666BDE8F081D4
:101D1000606803EB5001EDE7FFF712F9E5E7616852
:101D200000EB5100B0FBF1F0E6E70000008000405E
:101D3000F369FFEF0038014000100240004400400A
:101D4000004800400024F400FFFC0F00000024F4D1
:101D50000048E8012DE9F041984617460E46044632
:101D6000069D1DE0681C1BD02DB1FEF7F5FDA0EB14
:101D70000800A84214D92068016821F4D0710160DC
:101D80002068816821F001018160202084F87100C1
:101D900084F87200002084F870000320BDE8F08110
:101DA0002068C06936EA000004D00020B842D9D0CB
:101DB0000020F3E70120F9E7FEE70907090E0028F4
:101DC00004DB00F1E02080F80014704700F00F0001
:101DD00000F1E02080F8141D704702E008C8121FCF
:101DE00008C1002AFAD170477047002001E001C104
:101DF000121F002AFBD170470EB5FEF7BBFDFFF79F
:101E000084FD1848C16C41F08001C164C16C01F0CF
:101E100080010091C16C41F00101C164C16C01F00D
:101E200001010091C16C41F00401C164C06C00F07B
:101E300004000090FFF734FCFFF760FCFFF774FC30
:101E400009A20A2307CA8DE807001A46694609480D
:101E5000FFF7CCFB07480A231A4669467830FFF79C
:101E6000C5FBEDE70010024030313233346162636C
:101E70006465000070000020000000000000000009
:101E80000102030406070809A0860100400D0300B3
:101E9000801A060000350C0040420F0080841E00AE
:101EA00000093D0000127A000024F40000366E01A3
:101EB0000048E801006CDC0200000000010203049D
:101EC000E01E00080000002008000000DA1D0008E5
:101ED000E81E00080800002058050000EA1D000860
:081EE0000000000000093D00B4
:040000050800018D61
:00000001FF
