:020000040800F2
:1000000000050020A1010008031F0008711E000860
:10001000011F0008F508000829260008000000005C
:10002000000000000000000000000000792100082E
:10003000F708000800000000051F00087B210008E9
:10004000BB010008BB010008BB010008BB010008A0
:10005000BB010008BB010008BB010008BB01000890
:10006000BB010008BB010008BB010008BB01000880
:10007000BB010008BB010008BB010008BB01000870
:10008000BB010008BB010008BB010008BB01000860
:10009000BB010008BB010008BB010008BB01000850
:1000A000BB010008BB010008BB010008BB01000840
:1000B000BB0100080000000000000000BB010008B8
:1000C000BB010008BB010008BB010008BB01000820
:1000D000BB010008BB010008BB010008BB01000810
:1000E000BB010008BB010008000000000000000088
:1000F0000000000000000000000000000000000000
:1001000000000000BB01000800000000BB01000867
:100110000000000000000000BB010008BB01000857
:10012000BB010008BB010008BB010008BB010008BF
:10013000BB010008000000000000000000000000FB
:10014000BB010008BB010008BB0100080000000063
:10015000BB010008BB010008BB010008BB0100088F
:10016000BB010008BB010008BB0100080000000043
:10017000BB010008BB0100080000000000000000F7
:10018000BB010008BB010008BB010008DFF80CD070
:1001900000F026FB00480047652F000800050020FE
:1001A0000648804706480047FEE7FEE7FEE7FEE711
:1001B000FEE7FEE7FEE7FEE7FEE7FEE709220008AE
:1001C0008D0100082DE9F05F0546002092469B4610
:1001D00088460646814640241BE02846414647465D
:1001E000224600F00BF953465A46C01A914110D3EB
:1001F00011461846224600F0F2F82D1A67EB010866
:100200004F4622460120002100F0E9F817EB0009D3
:100210004E41201EA4F10104DFDC484631462A4647
:10022000434600F000B830BCBDE8C09FD2B201E048
:1002300000F8012B491EFBD270470022F6E710B5EB
:1002400013460A4604461946FFF7F0FF204610BD44
:100250002DE9FE4F81EA030404F0004421F000413F
:1002600000944FF0000B23F0004350EA01045ED0ED
:1002700052EA03045BD0C3F30A54C1F30A552C4479
:10028000A4F2F3340194A0FB0254C1F3130141F42E
:100290008011C3F3130343F4801301FB024400FBFA
:1002A000034E840A970A44EA815447EA8357A4FB21
:1002B000076802958D0A05FB07854FEA932C04FB1E
:1002C0000C542705029D4FEA065847EA1637B5EB4E
:1002D00008056EEB070C870E920E47EA811742EA7B
:1002E0008312A7FB0201B6EB0B0164EB00042B0D9C
:1002F00043EA0C335E1844EB1C50DA465146E7FBE8
:100300000201C5F313044FEA0B3343EA14534FEAD7
:100310000432019C43EA0603A4F10C040294009CFD
:10032000CDE900B400F0C0F803B000F003B800203D
:100330000146F9E730BCBDE8C08F0EB540F233414D
:1003400002910021CDE900110A460B4600F0ACF8FD
:1003500003B000BD00F0004230F000400AD0C10DF3
:1003600001F56071C0F3160042EA0151C20840076E
:100370001143704700200146704701F0004330B43C
:1003800021F0004150EA010206D00A0DA2F5607288
:10039000C1F31301002A02DC30BC00207047440F77
:1003A00044EAC104C100E01830BC00EBC25000F0C8
:1003B00035B830B50B46014600202022012409E063
:1003C00021FA02F59D4205D303FA02F5491B04FA0E
:1003D00002F52844151EA2F10102F1DC30BD202AED
:1003E00004DB203A00FA02F1002070479140C2F18C
:1003F000200320FA03F3194390407047202A04DBBE
:10040000203A21FA02F00021704721FA02F3D0408D
:10041000C2F1200291400843194670470029A8BF45
:100420007047401C490008BF20F00100704710B41D
:10043000B0FA80FC00FA0CF050EA010404BF10BCD2
:10044000704749B1CCF1200421FA04F411FA0CF1FF
:1004500018BF012121430843A3EB0C01CB1D4FEA38
:1004600000614FEA102042BF002010BC704700EB33
:10047000C35010440029A4BF10BC7047401C490061
:1004800008BF20F0010010BC704710B5141E73F1B6
:10049000000408DA401C41F1000192185B411A4344
:1004A00001D120F0010010BD2DE9F04D92469B4690
:1004B00011B1B1FA81F202E0B0FA80F22032904636
:1004C000FFF78DFF04460F4640EA0A0041EA0B01A0
:1004D00053465A46084313D0114653EA010019D037
:1004E000C8F140025046FFF789FF05460E465046C8
:1004F00059464246FFF773FF084305D0012004E048
:1005000020463946BDE8F08D0020054346EAE076F6
:100510002C4337430A986305E40AA0EB0800002245
:10052000FD0A44EA47540A3002D500200146E9E7B3
:10053000010510196941DDE9084500196941BDE867
:10054000F04DA2E72DE9FE4F804681EA0300C00F7F
:100550000C46009021F0004123F00045B8EB02006A
:10056000A94105D24046214690461C460B4602460C
:1005700023F00040104347D0270DC7F30A00C3F310
:100580000A510290401A019040286BDAC3F313001D
:1005900040F4801B0098924620B10023D2EB030A5E
:1005A00063EB0B0B01985946C0F140025046FFF730
:1005B00016FF06460D4650465946019A00F022F9AC
:1005C00010EB08006141002487EA115284EAE773C6
:1005D0001A4340D0009A62B3019A012A4FEA0752A7
:1005E00015DC001B61EB02014FF0004202EA0752EA
:1005F000CDE90042001C41F5801132462B46FFF741
:1006000053FF03B000F045B840462146F9E7001B10
:1006100061EB0201001C41F5801300185B412018BA
:10062000A2F5001747EB030140EAD570B6196D41FA
:1006300011E06D084FEA360645EAC0754FEA0752E9
:10064000001B61EB0201001C41F5801149084FEAD3
:1006500030000019514132462B4603B000F01CB85F
:10066000FFF713BF0098012240000023D0EB0202E5
:1006700063EBE073009821464FEAE074B8EB0000AA
:1006800061EB0401E9E783F000435BE781F000419F
:1006900058E730BCBDE8C08F30BCBDE8C04FFFF7A5
:1006A000DFBF2DE9F04D81EA030404F0004B21F097
:1006B000004514464FF0000A23F0004150EA0502BD
:1006C00020D054EA01021DD0C5F30A570246C5F3F3
:1006D0001303C1F31300C1F30A5640F4801543F429
:1006E0008013A7EB0608101BD64608F2FD3873EB03
:1006F000050002D308F1010801E092185B41B8F14E
:10070000000F03DA00200146BDE8F08D00204FF411
:100710008011064684460EE0171B73EB050705D3D0
:10072000121B63EB050306434CEA010C49084FEA30
:10073000300092185B4150EA0107EDD152EA030004
:1007400012D082EA040083EA0501084305D0101B99
:10075000AB4106D20122002306E000224FF0004305
:1007600002E06FF0010253101AEB06004CEB085147
:1007700010EB0A0041EB0B01BDE8F04DFFF785BE21
:10078000C1F30A52C1F3130140F2FF3341F4801167
:100790009A4202DA00200146704740F233439A42FF
:1007A000A2F2334202DC5242FFF728BEFFF717BE27
:1007B00030B5041E71F1000404DB4FF000444042E8
:1007C00064EB0101141E73F1000405DB1C464FF0BD
:1007D0000043524263EB0403994208BF904230BD8C
:1007E000064C074D06E0E06840F0010394E807007E
:1007F00098471034AC42F6D3FFF7CCFCEC2F00083E
:100800000C300008202A06DBCB17203A41FA02F010
:1008100043EAE07306E041FA02F3D040C2F120025D
:10082000914008431946704770B5044600688168D6
:1008300001F00301012926D10168C90723D081688D
:1008400001F00D01012910D1816841F002018160A0
:1008500021680320086000F089FC05460FE000BF16
:1008600000F084FC401B022809D9A06D40F0100064
:10087000A065E06D40F00100E065012070BD2068DA
:100880008068C007ECD1002070BD000070B5044640
:100890000068816801F00301012902D10168C907DC
:1008A00023D18168124A114210D1816841F00101BF
:1008B000816000F05BFC054612E0816841F00101B7
:1008C000816000F053FC401B022809D9A06D40F064
:1008D0001000A065E06D40F00100E065012070BDF2
:1008E00020680168C943C907E7D1002070BD000036
:1008F0003F000080FEE7704770B5044690F8540052
:1009000000250E4601280BD0012084F85400204613
:10091000FFF78AFFA26D002120B142F010022AE009
:10092000022070BD22F4885242F00202A2652268C1
:10093000936823F08043334393602268936843F0C5
:10094000004393604FF47A4322680CE06D1C9D4293
:1009500009D3A06D20F0020040F01000A06584F8DB
:100960005410012070BD9668002EEFDBA26D22F0BE
:10097000020242F00102A26584F8541070BD00002A
:10098000F8B50025009590F854202E46012A19D07C
:10099000012780F8547003689A6852077DD44A682A
:1009A0001F24052A10D2D3F830C002EB42025200B5
:1009B00094402CEA040C0C6894404CEA040CC3F8F4
:1009C00030C034E00220F8BD0A2A0FD2D3F834C078
:1009D000521F02EB4202520094402CEA040C0C68B5
:1009E00094404CEA040CC3F834C020E00F2A0FD224
:1009F000D3F838C00A3A02EB4202520094402CEA83
:100A0000040C0C6894404CEA040CC3F838C00EE0A7
:100A1000D3F83CC00F3A02EB4202520094402CEA59
:100A2000040C0C6894404CEA040CC3F83CC0026807
:100A3000936813F00C0F4FF0070374D1D1F800E066
:100A4000BEF10A0F10D39469AEF10A0E0EEB4E0CF4
:100A500003FA0CFE24EA0E04D1F808E00EFA0CFEAC
:100A600044EA0E0494610FE0D2F814C00EEB4E0479
:100A700003FA04FE2CEA0E0CD1F808E00EFA04FE8C
:100A80004CEA0E0CC2F814C002684C69D2F80CC0D3
:100A9000CCF3C10C4FEA4C0C00E0CCE004FA0CF4AF
:100AA000D1F810E0DFF8F0C1BEF1010F42D0BEF185
:100AB000020F4DD0BEF1030F58D0BEF1040F63D02A
:100AC000146E91F800C004F0F844B4EB8C6F03D1BD
:100AD000146E24F0004414660268546E91F800C04D
:100AE00004F0F844B4EB8C6F03D1546E24F000444E
:100AF00054660268946E91F800C004F0F844B4EBB8
:100B00008C6F03D1946E24F0004494660268D46E16
:100B100091F800C004F0F844B4EB8C6F03D1D46EAC
:100B200024F00044D4660268946804F00304012CA5
:100B30003AD136E0D2F860E00EEA0C0E91F800C02F
:100B400044EA8C644EEA040E4EF000441466EAE770
:100B5000D2F864E00EEA0C0E91F800C044EA8C640E
:100B60004EEA040E4EF000445466DCE7D2F868E02A
:100B70000EEA0C0E91F800C044EA8C644EEA040EB2
:100B80004EF000449466CEE7D2F86CE00EEA0C0E0C
:100B900091F800C044EA8C644EEA040E4EF0004422
:100BA000C0E71468E4074BD1CC68B4F1804F06D09D
:100BB00052F8B03F0C78A740BB43136020E052F8D6
:100BC000B04F91F800C007FA0CF73C4314600A6874
:100BD0000468092A0AD3A769093A02EB4202934042
:100BE0009F438B6893401F43A76109E06769521CCC
:100BF00002EB420293409F438B6893401F4367611F
:100C00000968264A112903D0122904D031B117E00E
:100C100093681B0204E09368DB0101E093685B02C8
:100C2000002B0DDB03689C6804F00304012C0BD13E
:100C30001C68E40708D0816D41F020018165012521
:100C400080F854602846F8BD154C11290AD01229A5
:100C50001CD00029F4D1A342F2D1916841F4800163
:100C60009160EDE7A342EBD1916841F400019160FE
:100C70000C490D4A0968B1FBF2F1C1EB0111C90041
:100C800000E0491E00910029FBD1D9E7A342D7D14A
:100C9000916841F08071E3E700F0FF030003045026
:100CA000000004501400002080841E00806D7047F6
:100CB0000068006C70470000F8B54FF000050400B4
:100CC0002E46009502D0A06D10B107E00120F8BDBE
:100CD000204600F0B5F8E66584F854602068816825
:100CE000890003D5816821F0005181602068816806
:100CF000C90010D4816841F0805181604B484C4953
:100D00000068B0FBF1F000EB8000400000E0401E06
:100D100000900028FBD120688168C90008D4A16D2B
:100D200041F01001A165E16D41F00101E16501258E
:100D3000A16DC90672D4816849076FD4A16D21F4F1
:100D4000807141F00201A1653A49826802F0030214
:100D5000012A02D10068C00705D18868626820F4C2
:100D60007C1010438860E168A06BE2690843A168C9
:100D700041EA42310843616A40EA0140012904D155
:100D8000218D2D4A02EB41410843E26A012A03D03A
:100D9000216B09B1114308432168CA68274B1A40E7
:100DA0000243CA602068816811F00C0F12D1A1695A
:100DB000626B890341EA4201C26844F202039A432A
:100DC0000A43C260E06B01280CD02068016921F061
:100DD00001010161206901282068016B21F00F01E8
:100DE00010D012E0D4E910100143D4E912021043EC
:100DF00001432068026940F2FD739A43114341F0B8
:100E00000101E6E7226A521E11430163A06D20F042
:100E1000020040F00100A06505E0FFE7A06D40F092
:100E20001000A06501252846F8BD00001400002030
:100E300080841E00000304500000FEFF07C0F0FF86
:100E400010B586B0044614216846FFF7F6F911493B
:100E5000206888421BD11048C16C41F40051C16424
:100E6000C16C01F400510591C16C41F00101C164F4
:100E7000C06C694600F001000590022000900B2034
:100E80000190002002904FF0904000F0A7F806B0CB
:100E900010BD000000000450001002402DE9F04198
:100EA000044640690D4608280AD02068C068C0077B
:100EB00008D0A06D40F02000A0650120BDE8F081C1
:100EC000082600E0042600F051F9074610E0681CEF
:100ED0000ED025B100F04AF9C01BA84208D9A06D78
:100EE00040F00400A065002084F854000320E5E7EA
:100EF000206800683042EAD0A06D40F40070A06520
:100F00002068C16811F4406F0FD1E16969B90168C7
:100F100009070AD5A16D21F48071A165A16DC904ED
:100F200003D4A16D41F00101A165C168082E05D06F
:100F3000490401D40C2101600020BFE70821FAE731
:100F400010B5044600688068400736D494F8540011
:100F5000012832D0012084F854002046FFF796FC87
:100F6000002110B184F8541010BDA26D40F6016349
:100F70009A4342F48072A265A26D22F48012A265A7
:100F8000A26DD20404D5E26D22F00602E26500E013
:100F9000E16523681C221A6084F854102168CA682D
:100FA000920105D5A26D22F4005242F48052A2654E
:100FB0008A6842F004028A6010BD022010BD70B53C
:100FC000044600F0D3F80546601C00D0641C00F015
:100FD000CDF8401BA042FAD370BD00002DE9F84FB8
:100FE000DFF864B100234FF0010C4FF0030A4FF01B
:100FF0000F090BF1040EA0E00CFA03F6324072D098
:101000004C68022C01D0122C0ED1DC0800EB8408B5
:10101000D8F820405D07EF0E09FA07F5AC430D69DB
:10102000BD402543C8F8205007685D0091F8048052
:101030000AFA05F408F00308A74308FA05F848EA95
:101040000708C0F800804F68012F05D0022F03D099
:10105000112F01D0122F11D18768D1F80C80A7432E
:1010600008FA05F848EA0708C0F808804768B74357
:101070000E79C6F300169E403E434660C668A643FE
:101080008C68AC403443C4604C68E40054D52F4CA9
:10109000256E45F001052566246E23F0030504F056
:1010A000010400942A4C2E19B4689D072F0F09FAE9
:1010B00007F5AC43B0F1904F04D0264DA84203D1C0
:1010C000012512E0002510E0234DA84201D10225A0
:1010D0000BE0224DA84201D1032506E0204DA84295
:1010E00002D1042501E027E00725BD402543B56076
:1010F000DBF800405D464E689443F60300D5144388
:101100002C60DEF8004075464E689443B60300D567
:1011100014432C600C4D08352C684E689443F6023D
:1011200000D514432C60084D0C352C684E68944350
:10113000B60200D514432C605B1C0A6832FA03F433
:101140007FF45AAF00F00EB80004014000100240D6
:10115000000001400004004800080048000C00485E
:101160000010004818BCBDE8E08F0000014800688E
:10117000704700001000002002480168491C01600F
:10118000704700001000002010B50024032000F07C
:1011900059F8002000F008F808B1012401E000F03F
:1011A0001BF8204610BD000070B5054609484FF4F5
:1011B0007A7100240068B0FBF1F000F085FD08B101
:1011C000012404E000222946501E00F01BF82046AE
:1011D00070BD000014000020094808B5016E41F000
:1011E00001010166016E01F001010091816D41F084
:1011F00080518165806D00F08050009008BD000036
:1012000000100240F0B40E4B1B680C46C3F30223DF
:10121000C3F10705042D00D90425191D072901D2A2
:10122000002300E0DB1E012606FA05F1491E2140DD
:1012300099409E40761E16403143F0BC01F006BA3C
:101240000CED00E0064900F0070208684FF6FF03C6
:10125000184040EA0220034A10430860704700002B
:101260000CED00E00000FA051649B0F5007F0868B3
:10127000C0F3412009D0022805D0086820F4C060DE
:1012800040F480600860002070470128FBD00868A7
:1012900020F4C06040F4007008600B4832220068FF
:1012A00050430A4AB0FBF2F0401C00E0401E4A697D
:1012B000520501D50028F9D148694005E3D503203E
:1012C00070470000007000401400002040420F00F2
:1012D0000248006800F4C0607047000000700040E1
:1012E0002DE9F84F044600270088A84D3E4600052A
:1012F00015D5606C60B1B0F5000F04D0B0F5400FAB
:101300002BD001270AE0E86840F48030E86024E050
:101310000021201D00F05CFE07001ED03E46206824
:1013200080033AD5A86D4FF00008C00009D4A86D1D
:1013300040F08050A865A86D4FF0010800F0805083
:101340000090DFF84CA2DAF8001041F48071CAF87E
:101350000010FFF70BFF814610E0D5F88800616CA4
:1013600020F440000843C5F88800D8E7FFF7FEFEE8
:10137000A0EB0900022801D9032705E0DAF80000F4
:10138000C005F3D5002F7DD04FEA0706B8F1000F56
:1013900003D0A86D20F08050A8652078C00707D042
:1013A000D5F88800216A20F003000843C5F88800BA
:1013B0002078800707D5D5F88800616A20F00C00F6
:1013C0000843C5F888002078400707D5D5F888007D
:1013D000A16A20F030000843C5F888002078800614
:1013E00007D5D5F88800E16A20F440600843C5F8C5
:1013F00088002088800507D5D5F88800E16B20F4A7
:1014000040200843C5F888002088400507D5D5F856
:101410008800216C20F440100843C5F8880020782B
:10142000400607D5D5F88800216B20F440500843CA
:10143000C5F888002078000607D5D5F88800616BCC
:1014400020F440400843C5F888002088C00507D52F
:10145000D5F88800A16B20F440300843C5F8880017
:1014600020684FF0006700034FF0806850D5D5F832
:101470008800A16C20F040600843C5F88800A06C8B
:10148000B84200E005E03BD1E86840F48010E86035
:101490003EE0D5F8900010F4407014D0A16D814268
:1014A00011D0D5F89000D5F8901020F4407041F498
:1014B0008031C5F89010D5F8901021F48031C5F82E
:1014C0009010C5F89000C00711D0FFF74FFE0746F7
:1014D00041F2883907E000BFFFF748FEC11B4945CC
:1014E00001D9032652E7D5F890008007F4D5D5F846
:1014F0009000A16D20F440700843C5F8900045E7C6
:10150000404505D10121201D00F062FD00B10646D5
:101510002068400317D5D5F88800E16C20F04060C2
:101520000843C5F88800E06CB84204D1E86840F48C
:101530008010E86007E0404505D10121201D00F042
:1015400047FD00B106462088400411D5D5F8880033
:10155000216D20F040500843C5F88800206DB0F19F
:10156000805F05D10221201D00F032FD00B106464A
:101570002088000406D555F8880F616D20F0804062
:1015800008432860304600F005B800000010024013
:101590000070004018BCBDE8E08F00002DE9F04766
:1015A000DFF8608105460E46D8F8000000F007001D
:1015B000B0420CD2D8F8001021F007013143C8F82E
:1015C0000010D8F8000000F00700B04275D128786C
:1015D0004D4CC00757D06868032818D0022819D08E
:1015E0002168D0B14905002967DAA16821F003011B
:1015F0000143A160FFF7BAFD6968074641F28830F0
:10160000032913D002291FD0814651B336E0216847
:101610008901E8E721688903E5E78907E3E700BF77
:10162000FFF7A4FDC11B494501D924E08146A0680C
:10163000C0F381000328F3D125E000BFFFF796FD3A
:10164000C11B494501D916E08146A068C0F381005D
:101650000228F3D117E000BFFFF788FDC11B494501
:1016600009D8A06810F00C0FF6D10CE0FFF77EFD52
:10167000C11B494502D90320BDE8F087A068C0F32B
:1016800081000128F2D12878800705D5A068A968D3
:1016900020F0F0000843A060D8F80010404601F0A8
:1016A0000701B1420BD9016821F007013143016004
:1016B000006800F00700B04201D00120DCE7287884
:1016C000400705D5A068E96820F4E0600843A06001
:1016D0002878000706D5A068296920F4605040EA00
:1016E000C100A06000F036F8A168084AC1F30311F8
:1016F000515CC840064908600020FFF755FD0020F6
:10170000BAE700000020024000100240A42F0008A9
:10171000140000200448054900688968044AC1F3A0
:101720000221515CC84070471400002000100240A4
:10173000E42F00080448054900688968044AC1F399
:10174000C221515CC84070471400002000100240C4
:10175000E42F000830B52D49002318468A682C4C28
:1017600012F00C0F4FEA640514D08A68C2F38102AC
:10177000032A04D1CA6802F00302012A0AD08A6847
:10178000C2F38102012A19D08A68C2F38102022AB7
:1017900016D016E00A68120704D4D1F89420C2F3D8
:1017A000032202E00A68C2F303121A4B53F82230F4
:1017B0008A6812F00C0F04D1184602E0204600E0BF
:1017C00028468A68C2F38102032A1DD1C868CA6804
:1017D00000F00300C2F30212521C022804D00328B6
:1017E00005D0B3FBF2F004E0B4FBF2F001E0B5FB8E
:1017F000F2F0CA68C968C2F306225043C1F34161DE
:10180000491C4900B0FBF1F030BD0000001002405F
:101810000024F400B42F00082DE9F84304460078B2
:10182000FD4DC0065DD5A86810F00C0F0AD0A06968
:101830000028286871D040F001002860FFF796FC6E
:10184000064654E02868800702D5A06900287DD0AC
:10185000216A2868000703D5286800F0F00004E03A
:10186000D5F89400F02202EA1010814216D90846F9
:1018700000F044FC002869D1286840F00800286086
:101880002868216A20F0F000084328606868E16950
:1018900020F47F4040EA0120686015E0286840F0AD
:1018A000080028602868216A20F0F00008432860BA
:1018B0006868E16920F47F4040EA01206860206A9E
:1018C00000F01CFC0028D6D1FFF744FFA968D34ADA
:1018D000C1F30311515CC840D14908600020FFF7F3
:1018E00063FC29E0FFF742FC801B02287ED82868B1
:1018F0008007F7D5286840F0080028602868216A2A
:1019000020F0F000084328606868E16920F47F4017
:1019100040EA012068600FE0FFE720F00100286046
:10192000FFF724FC064604E0FFF720FC801B02289A
:10193000DCD828688007F7D42078C0074AD0A86888
:10194000C0F3810002281FD0A86800E098E0C0F32F
:101950008100032803D1E868C043800714D0606881
:10196000B0F5803F17D0B0F5A02F286817D020F42D
:1019700080302860286820F4802028606068E0B10A
:10198000FFF7F4FB064614E02868800322D5606860
:10199000002875D01EE0286840F48030EDE740F460
:1019A00080202860F7E700BFFFF7E0FB801B64287A
:1019B0009CD828688003F7D50CE0FFF7D7FB0646D4
:1019C00005E000BFFFF7D2FB801B64288ED8286893
:1019D0008003F7D42078800742D5A868C0F381003F
:1019E000012816D0A868C0F3810000E0CEE00328EB
:1019F00004D1E86800F0030002280AD0E06800285B
:101A000028681DD040F480702860FFF7AFFB0646C1
:101A10000BE0286840050BD5E0680028B9D007E046
:101A2000FFF7A4FB801B0228C2D828684005F7D521
:101A30006868217C20F0F85040EA016068600FE09F
:101A400020F480702860FFF791FB064605E000BF98
:101A5000FFF78CFB801B0228AAD828684005F7D422
:101A60002078000729D560690028D5F8940013D0A4
:101A700040F00100C5F89400FFF778FB064606E049
:101A80001DE100BFFFF772FB801B02287ED8D5F84E
:101A900094008007F6D510E020F00100C5F894000E
:101AA000FFF764FB064604E0FFF760FB801B02289B
:101AB0006CD8D5F894008007F6D42078400761D51B
:101AC000A86D0026C00008D4A86D40F08050A8651D
:101AD000A86D012600F08050009052480168C905A9
:101AE00011D40168804641F480710160FFF73EFB2C
:101AF000074604E0FFF73AFBC01B022846D8D8F897
:101B00000000C005F6D5A068012815D00528D5F835
:101B1000900016D020F00100C5F89000D5F8900094
:101B200020F00400C5F89000A06841F28838B8B1F0
:101B3000FFF71CFB07460EE0D5F8900040F00100CF
:101B4000F0E740F00400C5F89000F5E7FFF70EFB62
:101B5000C11B41451AD8D5F890008007F6D50CE096
:101B6000FFF704FB074604E0FFF700FBC11B4145FC
:101B70000CD8D5F890008007F6D41EB1A86D20F0DF
:101B80008050A8652078800629D500E089E0606A49
:101B90000028D5F8980011D040F00100C5F8980051
:101BA000FFF7E4FA064604E0FFF7E0FA801B02289C
:101BB0007DD8D5F898008007F6D510E020F0010018
:101BC000C5F89800FFF7D2FA064604E0FFF7CEFA10
:101BD000801B02286BD8D5F898008007F6D4A06A3D
:101BE000C8B1A968C1F38101032968D00228286817
:101BF00020F08070286019D02868000103D4E868BC
:101C000020F00300E860E86807490840E860FFF753
:101C1000ADFA04464EE050E000100240A42F000848
:101C20001400002000700040FFFFEEFEFFF79EFA58
:101C3000064604E0FFF79AFA801B022837D8286886
:101C40008001F7D4206B54F82C1F00011038084392
:101C5000218A1C4A490802EB4151A26841EA02214B
:101C60000843217D4FF07E42490802EB4161084361
:101C7000217B40EAC160E860286840F080702860FD
:101C8000E86840F08070E860FFF770FA044604E00E
:101C9000FFF76CFA001B022809D828688001F7D5E5
:101CA0000BE004E0FFF762FA001B022802D90320D0
:101CB000BDE8F88328688001F4D40020F8E701200B
:101CC000F6E700000000E0FF10B5401EB0F1807F95
:101CD00001D3012010BD4FF0E02460610F21601797
:101CE00000F0B4FC0020A06107202061002010BD9E
:101CF00010B5040003D094F8710010B107E0012082
:101D000010BD002084F87000204600F027F8242041
:101D100084F871002068016821F00101016020460B
:101D200000F026FB0128EBD0606A10B1204600F0DD
:101D30008DFA2068416821F49041416020688168F3
:101D400021F02A0181602068016841F001010160F1
:101D50002046BDE8104000F0DDBA000010B586B0A6
:101D6000044614216846FEF768FA13492068884241
:101D700020D11248016E41F480410166016E01F4E8
:101D800080410591C16C41F00101C164C06C69469C
:101D900000F0010005904FF4C06000900220019017
:101DA0000020029003200390072004904FF0904001
:101DB000FFF714F906B010BD0038014000100240D2
:101DC0002DE9F843044690F871001F4616460D466B
:101DD00020284BD1C5B1BEB194F87000012845D080
:101DE000012084F870004FF00008C4F874802120AE
:101DF00084F87100FFF7BAF9A4F850608146A4F89E
:101E000052604FF4805615E00120BDE8F883802130
:101E1000204600F0D7FBD8B9A068B04201D12069B4
:101E2000C0B115F8010B21680885B4F85200401EB6
:101E3000A4F85200B4F852004B464FF0000200974D
:101E40000028E4D14FF04001204600F0BBFB30B148
:101E50000320DAE735F8020BC0F30800E3E720209F
:101E600084F8710084F870800020CEE70220CCE76F
:101E7000FEE7000030B587B018216846FEF7DDF9AF
:101E800013481249002401604FF43011C0E90114D5
:101E90000421C460C0E9044101258461C0E907450B
:101EA0004462C0E90B5444638463C463FEF704FFD7
:101EB0000620CDE900050720CDE902040494694617
:101EC00003480594FEF75CFD07B030BD00000450E8
:101ED0001C0000200948084901604FF4E1314160CD
:101EE000002181600C22C160C0E904128161C161DE
:101EF00001624162FFF7FCBE00380140840000200F
:101F0000FEE7704770470000F8B5254C25480026CD
:101F1000C4E902602448FFF713F8C8212248FEF7FD
:101F2000BDFF00283BD14FF47A752846FFF747F8EC
:101F300000211D48FEF7E0FC1B48FEF7B7FE8005B8
:101F40002DD566801848FEF7B3FE80B22080A168C8
:101F50000844A0606088401C80B260800A28F1D3E9
:101F60002088FEF7EAF99FED111B53EC112BFEF7C9
:101F70006FF9FEF702FA6060A1680A22B1FBF2F481
:101F8000FEF7E8F941EC100B0AA053EC102B00947B
:101F900000F04CFB2846BDE8F840FFF710B8F8BD4C
:101FA00000000020AA75FF1F1C000020B4D934E7F0
:101FB0000C684A3F0AB0E5D4D8B5E7D1B9CEAA201B
:101FC0002566200A414443C8A1D6B5CEAA2564009F
:101FD0002DE9F041444C05468846E068002681071B
:101FE00028680DD0E16801F00301814216D1A8B143
:101FF000E0686968C0F30210401C88420ED120E0FE
:10200000012804D0022805D0032807D108E0216860
:10201000890701E021684905002907DB01265FE007
:102020002168890302D421684903F5E7E1686A68F9
:102030006FF00F0321F0730103EB02121143014310
:10204000E160206820F080602060FFF78FF807468D
:1020500005E000BFFFF78AF8C01B022837D82068C8
:102060000001F7D4B8F1000F18D0B8F1010F1DD05E
:10207000287D4FF07E41400801EB4060A96840EAAE
:1020800001202169194A114008432061206840F06D
:1020900080602060FFF76AF807461AE0A868297B8D
:1020A000000240EAC1602169114AECE7288A11491F
:1020B000400801EB4050A96840EA012021690E4A1E
:1020C000E1E700BFFFF752F8C01B022801D9032641
:1020D00006E020680001F5D52069A9690843206160
:1020E0003046BDE8F081000000100240FF80FFF99B
:1020F000FF80FF070000E0FFFF809FFFF8B51C4D49
:1021000006460024A86DC00002D5FFF7E1F80DE0F7
:10211000A86D40F08050A865A86D00F08050009038
:10212000FFF7D6F8A96D21F08051A965B0F5007FC1
:1021300004D0802E07D94FF003040AE0802E08D97E
:10214000A02E01D804E001D1022402E0702E00D1BB
:1021500001240848016821F007012143016000685B
:1021600000F00700A04201D00120F8BD0020F8BD1A
:1021700000100240002002407047FEF7FDBF2DE92D
:10218000F041AEB0442117A8FEF757F8142128A853
:10219000FEF753F85C216846FEF74FF8012630043D
:1021A000CDE9176002240327CDE921474FF0070846
:1021B000CDE9258414202794CDE9236017A8FFF7E3
:1021C0002BFB0F2028900025CDE929752B950421A4
:1021D00028A82C95FFF7E2F944F2010000900007CF
:1021E000149008950820CDE9026001974005CDE9DB
:1021F0000640CDE904846846FFF772F82002FFF735
:1022000033F82EB0BDE8F0810D48016841F470014B
:1022100001600C48016841F001010160002181600A
:102220000268094B1A4002608214C260026822F4FC
:102230008022026081610249C003803908607047D2
:1022400088ED00E000100240FFFFF6EA90F824104D
:10225000C90706D001684A68836A22F400321A432B
:102260004A6090F82410890706D501684A68C36A55
:1022700022F480321A434A6090F82410490706D5A8
:1022800001684A68036B22F480221A434A6090F87E
:102290002410090706D501684A68436B22F40042FE
:1022A0001A434A6090F82410C90606D501688A6866
:1022B000836B22F480521A438A6090F824108906B6
:1022C00006D501688A68C36B22F400521A438A60FB
:1022D00090F82410490611D501684A68036C22F46D
:1022E00080121A434A60016CB1F5801F06D1016863
:1022F0004A68436C22F4C0021A434A6090F82410E2
:10230000090606D501684A68806C22F4002202435F
:102310004A607047F8B5002604464667FEF726FF78
:102320000546206800686FF07E47000708D52B46F9
:1023300000224FF400112046009700F043F960B9E5
:102340002068006840070AD52B4600224FF4800120
:102350002046009700F036F908B10320F8BD202090
:1023600084F8710084F8720084F870600020F8BD71
:102370002DE9F0410446016880682369E669184345
:1023800063691025002733431843844A0B68844E41
:10239000334003430B6020684168E36821F44051F7
:1023A000194341602168A069914201D0236A184312
:1023B0008B6823F4306303438B607A4B21687A483F
:1023C00099420DD1D0F8880010F0030006D0012802
:1023D00039D0022835D0032838D136E0012535E040
:1023E000724B99420BD1D0F8880010F00C0026D027
:1023F000042828D0082824D00C2827D125E06C4BAD
:1024000099420BD1D0F8880010F0300017D0102876
:1024100019D0202815D0302818D116E0914215D1B6
:10242000D0F8880010F4406009D0B0F5806F0AD071
:10243000B0F5006F05D0B0F5406F07D105E000257D
:1024400004E0022502E0042500E00825594B00269F
:102450004FF4004091423DD135B1022D07D0042DFB
:1024600007D0082D10D107E0FFF754F903E0184614
:1024700002E0FFF76FF9A8B3626802EB4201814204
:1024800002D8B0EB023F01D9012774E0DFF82881C0
:102490005DB1022D0CD0042D13D0082DF4D15008BD
:1024A0002905401846F1000105E0FFF733F90AE07D
:1024B00050084249F5E70023FDF784FEA0F540717E
:1024C00055E0FFF747F96268010E0302500818183B
:1024D0007141F0E7E1694FF6EF7881422ED1092D85
:1024E000D2D200E047E0DFE805F006091F0522052B
:1024F00005052500C8E7FFF70DF901E0FFF71AF918
:102500004100606801EB5001B1FBF0F080B2A0F136
:1025100010014145B8D84FF6F0710140C0F34200B8
:1025200001432068C16026E025496068EAE7FFF7BB
:1025300011F9E5E74FF480316068E3E7092DA3D294
:10254000DFE805F006091E052205050525009BE7C5
:10255000FFF7E0F801E0FFF7EDF80146606801EBF6
:10256000500100BFB1FBF0F080B2A0F11001414575
:102570008AD82168C860266638466666BDE8F0815C
:10258000606803EB5001EDE7FFF7E4F8E5E7616809
:1025900000EB5100B0FBF1F0E6E7000000800040E6
:1025A000F369FFEF00380140001002400044004092
:1025B000004800400024F400FFFC0F00000024F459
:1025C0000048E8012DE9F041984617460E460446BA
:1025D000069D1DE0681C1BD02DB1FEF7C7FDA0EBCA
:1025E0000800A84214D92068016821F4D071016064
:1025F0002068816821F001018160202084F8710049
:1026000084F87200002084F870000320BDE8F08197
:102610002068C06936EA000004D00020B842D9D052
:102620000020F3E70120F9E7FEE700000FB4054BB7
:1026300010B503A9044A029800F0EEF810BC5DF84A
:1026400014FB00004D2F0008180000200907090E98
:10265000002804DB00F1E02080F80014704700F04F
:102660000F0000F1E02080F8141D704702E008C858
:10267000121F08C1002AFAD170477047002001E0FC
:1026800001C1121F002AFBD1704700002DE9FF5F36
:1026900082B00021DDE90430020DDDF840B00343D3
:1026A00018D044F61050A2F2FF324243151411988C
:1026B00001281FD0A5EB0B00401C5FEA000A4FF079
:1026C00000064E4FDFF83891B046504615D5CAF196
:1026D000000413E0119801244AA3012801D16FEAF4
:1026E0000B010298119AC0E90031C0E9024206B01C
:1026F00000F08EB8CBF10000DFE704460021404A2D
:10270000491842EB0450CDE9001012E0E00707D071
:1027100032463B4640464946FDF79AFD804689468B
:1027200032463B4610461946FDF792FD06460F46D7
:102730006410002CEAD1DDE90401DDE90023BAF1DF
:10274000000F06DAFDF784FD42464B46FDF780FD9B
:1027500005E0FDF7A6FF42464B46FDF7A2FF044603
:102760000E460022284BFEF723F803D84FF0FF3027
:10277000014607E00022254B20463146FDF7E2FEE8
:10278000FDF7FEFF102409E0002C0ADB0A220023DB
:10279000FDF718FD039B30321A55641E50EA010202
:1027A000F2D1641C039AC4F111031444119A012A52
:1027B00003D0012208430DD10AE0084304D00020D1
:1027C0004FF0110B119072E7A3EB0B056D1E0DE09E
:1027D0005B4504DD4FF0000205F1010504E003DA7A
:1027E0004FF00002A5F10105002AECD002981199E2
:1027F000C0E90231C0E9004579E70000000014405B
:102800000000F03F300000000000F0430000E03F17
:1028100030BCBDE8C09F00002DE9FF4F95B09B463E
:102820008946064600250FE2252877D10024274651
:10283000F84A0121059400E0044316F8013F203BCB
:1028400001FA03F01042F7D130782A2811D06FF046
:102850002F033078A0F13002092A16D8059A44F0E7
:10286000020402EB820203EB42021044761C059044
:10287000EFE759F8042B0592002A03DA504244F49A
:102880000054059044F00204761C30782E2816D1AE
:1028900016F8010F44F004042A280DD06FF02F021F
:1028A0003078A0F13003092B09D807EB870302EB3E
:1028B0004303C718761CF3E759F8047B761C30787D
:1028C0006C280FD006DC4C2817D068280DD06A2859
:1028D00014D104E0742810D07A280FD10DE044F40C
:1028E00000140AE044F4801401E044F440147278C7
:1028F000824202D104F58014761C761C307866285A
:102900000BD013DC582877D009DC002875D0452877
:10291000F6D04628F4D047281AD19DE118E0632864
:1029200035D0642879D0652812D195E1702873D00C
:1029300008DC6728F1D069286FD06E280DD06F2889
:1029400006D1B5E073282CD0752875D0782874D0BE
:102950005A46179990476D1C75E1C4F3025002283E
:1029600009D003280DD0D9F8001004280DD00D602F
:1029700009F1040967E1D9F80010EA17C1E900522A
:10298000F6E7D9F800100D80F2E70D70F0E719F8BE
:10299000041B8DF8001000208DF80100EA4601208C
:1029A00003E059F804AB4FF0FF3061074FF000012E
:1029B00002D40DE008F101018846B9420FDA8045E2
:1029C000F8DB1AF808100029F4D108E008F1010139
:1029D00088468142FADB1AF808100029F6D10598DA
:1029E0005B46A0EB080721463846179A00F097FA95
:1029F000284400EB080507E04DE029E10DE01AF856
:102A0000010B5A4617999047B8F10108F7D25B4677
:102A100021463846179A13E142E00A220092C4F395
:102A200002524FF0000A022A08D059F804CB032AB8
:102A30004FEAEC710AD00DE029E02AE009F1070124
:102A400021F00702F2E802C1914609E00FFA8CFC7E
:102A50004FEAEC71042A03D14FFA8CFC4FEAEC7177
:102A6000002907DA0A460021DCF1000C61EB0201C3
:102A70002D2202E0220504D52B228DF8042001220C
:102A800003E0E20701D02022F7E7904659E00A214F
:102A900002E010220DE010214FF0000A00910BE03F
:102AA00010224FF0000A44F004040827009203E0CB
:102AB00008224FF0000A0092C4F30252022A05D005
:102AC00059F804CB0021032A08D009E009F10701D5
:102AD00021F00702F2E802C1914605E01FFA8CFCE2
:102AE000042A01D10CF0FF0C4FF00008220728D572
:102AF000702806D0009B83F0100353EA0A0305D028
:102B00000EE040228DF80420012208E05CEA010278
:102B100006D030228DF804208DF805000222904660
:102B2000009B83F0080353EA0A030AD15CEA01021E
:102B300001D1620705D530228DF804204FF001083D
:102B40007F1E582804D034A003900EA802900DE0F8
:102B500036A0F9E753466046009AFDF733FB8446FA
:102B60000398825C0298401E029002705CEA0100A9
:102B7000F0D1029806A9081A00F1200A600702D5D0
:102B800024F4803400E00127574502DDA7EB0A005A
:102B900000E0002000EB0A01009005984144401A33
:102BA0000590E00306D45B462146179A059800F08D
:102BB000B6F90544002706E001A85A46C05D1799FA
:102BC00090476D1C7F1C4745F6DBE0030CD55B4648
:102BD0002146179A059800F0A2F9054404E0302038
:102BE0005A46179990476D1C0099481E009000297D
:102BF000F5DC08E0029802995A460078491C0291D7
:102C0000179990476D1CBAF10001AAF1010AF1DC95
:102C100065E10000092801003031323334353637A0
:102C20003839616263646566000000003031323318
:102C300034353637383941424344454600000000B8
:102C400000F05BF90544761C307800287FF4ECAD89
:102C500019B0284600F04EB9620700D4062709F1E2
:102C6000070222F0070CFCE80223E14603F00048CB
:102C70005FEA080C02D00FF2702C0DE05FEA045CF2
:102C800002D50FF2682C07E05FEAC47C02D00FF295
:102C9000602C01E0AFF2700C4FF0FF3823F00043DE
:102CA000CDF850C065280CD006DC452809D0462850
:102CB0001DD047283DD13DE0662818D067287ED139
:102CC00038E00021112F01DB112000E0781CCDE954
:102CD000000106A90EA8FFF7D9FCDDE90F010E9A45
:102CE00003910021009207F1010A04914DE04FF099
:102CF00000400097CDE9011006A90EA8FFF7C6FC19
:102D0000DDE90F0203920E9B11990022DDF80CA061
:102D10000093049211B9791C00EB010AB7EB0A0089
:102D200004D4C0F1FF3007F1010A0490AAEB0700B8
:102D3000019044E0012F00DA01270021112F01DD6D
:102D4000112000E03846CDE9000106A90EA8FFF7E2
:102D50009DFCDDE90F010E9A039100210491009280
:102D6000BA4621070CD40399514500DA8A46BAF1D4
:102D7000010F05DD009AAAF10101515C302908D04C
:102D8000B84202DA10F1040F06DA0121CDE9011090
:102D900015E0AAF10101E9E7002805DC04990144E6
:102DA0000491AAEB000102E0411C514500DD8A4676
:102DB0000499401A401C01904FF0004002902007F7
:102DC00004D40198504501DBCDF8048000208DF833
:102DD0004F0002980DF14F07B0F1004F25D02B2086
:102DE0000E9002984FF0020800280CDA4042029040
:102DF0002D200E9007E00A210298FDF7DAFA303113
:102E0000029007F8011DB8F10001A8F10108F2DCF9
:102E100002980028EFD1791E0E980870307800F0E3
:102E2000200040F0450007F8020D12A8C01B00F179
:102E300007081498007800B1012000EB0A010198FE
:102E400001EBE07105984144401A401E0590E003F3
:102E500006D45B462146179A059800F060F80544B1
:102E60001498007818B15A46179990476D1CE003E2
:102E700024D55B462146179A059800F050F8054482
:102E80001CE00498002807DBDDE90301884203DD2C
:102E90000098405C179901E0179930205A469047F6
:102EA000049805F10105401C04900198401E019012
:102EB00004D12E205A46179990476D1CBAF1000193
:102EC000AAF1010ADDDC05E017F8010B5A46179953
:102ED00090476D1CB8F10001A8F10108F4DC5B46D5
:102EE0002146179A0598ABE62D0000002B00000044
:102EF0002000000030BCBDE8C08F2DE9F041044641
:102F000000251E461746880404D405E039462020D3
:102F1000B0476D1C641EF9D52846BDE8F0812DE947
:102F2000F041044600251E469046C80301D53027CF
:102F300000E02027880404D505E041463846B04724
:102F40006D1C641EF9D52846BDE8F08113B54FF617
:102F5000FF73012269460248FEF732FF00981CBD4C
:102F60008400002008B5FEF70FF9FFF708F90C48B8
:102F7000C16C41F08001C164C16C01F0800100911D
:102F8000C16C41F00101C164C06C00F0010000900F
:102F9000FEF770FFFEF79EFFFEF7B6FFFCE70000AE
:102FA00000100240000000000000000001020304C5
:102FB00006070809A0860100400D0300801A0600DC
:102FC00000350C0040420F0080841E0000093D00C7
:102FD00000127A000024F40000366E010048E80177
:102FE000006CDC0200000000010203040C30000849
:102FF000000000201C0000006C260008283000089B
:103000001C000020E40400007C26000800000000F2
:1030100000000000000000000000000000000000B0
:0830200000093D000000000062
:040000050800018D61
:00000001FF
